:020000040800F2
:1000000040120020851700088506000887060008B2
:100010008B0600088F060008930600080000000009
:10002000000000000000000000000000970600082B
:1000300099060008000000009B0600089D060008C5
:100040009F1700089F1700089F1700089F170008B8
:100050009F1700089F1700089F1700089F170008A8
:100060009F1700089F1700089F1700089F17000898
:100070009F1700089F1700089F1700089F17000888
:100080009F1700089F1700089F1700089F17000878
:100090009F1700089F1700089F1700089F17000868
:1000A0009F1700089F1700089F1700089F17000858
:1000B000151200089F1700089F1700089F170008D7
:1000C0009F1700089F1700089F1700089F17000838
:1000D0009F170008810B0008DB1400082B0B000899
:1000E0009F1700089F1700089F1700089F17000818
:1000F0009F1700089F1700089F1700089F17000808
:100100009F1700089F1700089F1700089F170008F7
:10011000D70B00089F1700089F1700089F170008BB
:100120009F1700089F1700089F1700089F170008D7
:1001300000F002F800F05EF80AA090E8000C82449B
:100140008344AAF10107DA4501D100F053F8AFF278
:10015000090EBAE80F0013F0010F18BFFB1A43F0A5
:100160000103184794390000B439000010F8013B2E
:100170000A4413F0030408BF10F8014B1D1108BF17
:1001800010F8015B641E05D010F8016B641E01F8C5
:10019000016BF9D1002D15D010F8014B03F00C03C1
:1001A0000C2BA1EB04040ABF10F8013BA4EB831451
:1001B000A4EB032405F1010314F8016B5B1E01F8A5
:1001C000016BF9D5914238BF10F8013BD1D370478C
:1001D0000023002400250026103A28BF78C1FBD850
:1001E000520728BF30C148BF0B6070471FB51FBD05
:1001F00010B510BD03F024F81146FFF7F7FF00F02B
:1002000040F903F042F803B4FFF7F2FF03BC00F03B
:1002100037FB00002DE9F04105460E4617469C4687
:1002200028784FF47F4808EA0028687808EB000136
:1002300030784FF47F4808EA002870784044A0F1F5
:100240000F0238784FF47F4808EA0028787808EBE6
:1002500000039CF800004FF47F4808EA00289CF84F
:1002600001004044A0F10A0442F2107091FBF0F842
:1002700000FB18104FF47A7890FBF8F03030DFF87C
:100280007C8388F808004FF47A7091FBF0F800FB4B
:1002900018104FF0640890FBF8F03030DFF85C8302
:1002A00088F809002E2088F80A00642091FBF0F8F5
:1002B00000FB18104FF00A0890FBF8F03030DFF820
:1002C0003C8388F80B000A2091FBF0F800FB181023
:1002D0003030DFF8288388F80C0042F2107094FB6D
:1002E000F0F800FB18404FF47A7890FBF8F03030CB
:1002F000DFF8088388F812004FF47A7094FBF0F866
:1003000000FB18404FF0640890FBF8F03030DFF845
:10031000EC8288F81300642094FBF0F800FB18408E
:100320004FF00A0890FBF8F03030DFF8D08288F800
:1003300014002E2088F815000A2094FBF0F800FB2A
:1003400018403030DFF8B48288F8160042F210709E
:1003500092FBF0F800FB18204FF47A7890FBF8F04D
:100360003030DFF8988288F803004FF47A7092FBFF
:10037000F0F800FB18204FF0640890FBF8F03030E4
:10038000DFF8788288F804002E2088F805006420C1
:1003900092FBF0F800FB18204FF00A0890FBF8F0F1
:1003A0003030DFF8588288F806000A2092FBF0F817
:1003B00000FB18203030DFF8448288F8070042F252
:1003C000107093FBF0F800FB18304FF47A7890FB34
:1003D000F8F03030DFF8248288F80D004FF47A709E
:1003E00093FBF0F800FB18304FF0640890FBF8F036
:1003F0003030DFF8088288F80E002E2088F80F00D1
:10040000642093FBF0F800FB18304FF00A0890FBD3
:10041000F8F03030DFF8E48188F810000A2093FB10
:10042000F0F800FB18303030DFF8D08188F8110088
:100430004046BDE8F0812DE9F04104460D461646E0
:100440000027B84600BF17E02178304601F0E4FEEF
:100450004FF0000803E008F101001FFA80F8402186
:10046000304601F047FF012803D040F6FF70804579
:10047000F1DB641C781CC7B2AF42E5DB0120BDE8AC
:10048000F08101F079F900F01FFF00F0FDFE00F0AF
:100490007BFE00F08CFE01F005F900F07BFD4FF4CF
:1004A000165000F0FCF94FF4165000F047FA4FF4E4
:1004B000165000F093FA4FF4165000F0E1FA4FF4A2
:1004C0007A7001F02CF940F6B8324DA14DA000F041
:1004D00022FF4FF4FA6001F022F940F6B8324AA147
:1004E0004BA000F018FF4FF4FA6001F018F94BA090
:1004F00001F05EFF4FF47A7001F011F900F043FF54
:1005000000F0F1FE00F075FF00F0EDFE75E0464AE8
:1005100008214648FFF78FFF4FF4167001F0FFF8EF
:10052000434A08214348FFF786FF4FF4167001F055
:10053000F6F8414A08214148FFF77DFF4FF4167055
:1005400001F0EDF83E480078012807D03D480078DA
:10055000012803D03C480078012826D13B48407947
:100560003B4908703948807948703A48C0783A4920
:1005700008703848007948703448C07837490870A6
:100580003248007948703648C07836490870344897
:10059000007948704FF4FA7001F0C1F800202A4940
:1005A000087028490870264908702FA001F000FF44
:1005B0004FF47A7000F056FE254B2A4A2749264808
:1005C000FFF728FE04462C4A1721FFF734FF4FF4AB
:1005D000FA6000F047FE1A21274801F01DFE4FF493
:1005E0007A7000F03FFE00F07EFE24480068C043B1
:1005F0002349C1F8980100F04DFF88E7000800206A
:100600004F4B000041540000524541445900000046
:1006100041542B4350494E3F0000000041542B43AE
:1006200053510D0A00000000004C0040A8320008A1
:1006300000480040A032000800380140B0320008F5
:100640003F0800203D0800203B080020450A00200C
:100650001D0800203C0A002019080020170800206F
:10066000340800201B08002041542B4349505345B7
:100670004E440D0A00000000004400409801224250
:1006800000002242704700BFFEE700BFFEE700BF48
:10069000FEE700BFFEE770477047704770470000F5
:1006A0000CB50020019000906C48006840F4803048
:1006B0006A49086000BF6948006800F40030009093
:1006C0000198401C0190009818B90198B0F5A06FEE
:1006D000F1D16248006800F4003010B101200090B0
:1006E00001E0002000900098012843D15C48006898
:1006F00040F010005A4908600846006820F00300E6
:1007000008600846006840F00200086053484068EE
:10071000524948600846406848600846406840F4CE
:10072000806048600846406820F47C1048600846B5
:10073000406840F4E81048600846006840F0807067
:10074000086000BF4548006800F000700028F9D03C
:100750004248406820F0030040494860084640682D
:1007600040F00200486000BF3C48406800F00C00C8
:100770000828F9D10CBD10B5FFF792FF10BD10B5D8
:100780003648006840F00100344908600846406877
:1007900034490840314948600846006832490840F9
:1007A0002E4908600846006820F48020086008464A
:1007B000406820F4FE0048604FF41F008860FFF797
:1007C000DAFF4FF000602949086010BD10B5002124
:1007D00000200022214B5B6803F00C0121B10429A9
:1007E00006D0082928D107E0214B224C236027E0BE
:1007F0001F4B204C236023E0184B5B6803F4701000
:10080000164B5B6803F48032022303EB904022B95D
:10081000194B4343174C23600DE0104B5B6803F406
:10082000003323B1144B4343124C236003E0104BBD
:100830004343104C236003E00D4B0E4C236000BF7C
:1008400000BF064B5B68C3F303130C4CE15C094B20
:100850001B68CB40074C236010BD00000010024015
:10086000002002400000FFF8FFFFF6FE08ED00E068
:1008700000127A002008002000093D002408002012
:10088000014600BF704702E0C2B2E94B1A80E84A55
:10089000121F128802F04002002AF5D0704710B5EE
:1008A00086B00446012144F2080001F015FBE1483E
:1008B00001F076FB4FF40070ADF8140003208DF8C2
:1008C000160018208DF8170005A9DB4801F048F83C
:1008D0004FF48060ADF8140004208DF8170005A9CE
:1008E000D54801F03DF825208DF8000002208DF854
:1008F00001008DF8020001208DF80300684600F029
:1009000066FF01940020ADF80800ADF80A00ADF8CC
:100910000C00ADF810000C20ADF80E0001A9C54880
:1009200001F081FB012240F22551C24801F013FC85
:100930000121C04801F003FC06B010BD10B586B01F
:1009400004460121042001F0C7FA0121480401F006
:10095000D0FABA4801F024FB0420ADF814000320BB
:100960008DF8160018208DF8170005A9B24800F080
:10097000F7FF0820ADF8140004208DF8170005A932
:10098000AD4800F0EDFF26208DF8000000208DF826
:1009900001008DF8020001208DF80300684600F088
:1009A00016FF01940020ADF80800ADF80A00ADF87C
:1009B0000C00ADF810000C20ADF80E0001A99F4806
:1009C00001F031FB012240F225519C4801F0C3FBAC
:1009D00001219A4801F0B3FB06B010BD10B586B0F6
:1009E00004460121082001F077FA0121880401F072
:1009F00080FA934801F0D4FA4FF48060ADF8140007
:100A000003208DF8160018208DF8170005A98D48D1
:100A100000F0A6FF4FF40060ADF8140004208DF83C
:100A2000170005A9874800F09BFF27208DF80000DC
:100A300003208DF801008DF8020001208DF80300DD
:100A4000684600F0C4FE01940020ADF80800ADF83F
:100A50000A00ADF80C00ADF810000C20ADF80E0047
:100A600001A9774801F0DFFA012240F225517448CC
:100A700001F071FB0121724801F061FB06B010BD6D
:100A800010B586B004460121102001F025FA01219D
:100A9000C80401F02EFA6648001F01F081FA4FF4F5
:100AA0008060ADF8140003208DF8160018208DF832
:100AB000170005A9644800F053FF4FF40060ADF83B
:100AC000140004208DF8170005A95F4800F048FFC6
:100AD00034208DF8000001208DF801008DF802000F
:100AE0008DF80300684600F072FE01940020ADF816
:100AF0000800ADF80A00ADF80C00ADF810000C20AD
:100B0000ADF80E0001A94A48001F01F08CFA01223D
:100B100040F225514648001F01F01DFB01214448C9
:100B2000001F01F00CFB06B010BD10B5002440F210
:100B30002551434801F0F4FB08B3414801F070FB34
:100B4000C4B242484249097844540078022811D17D
:100B50003F480078401C3E49087008460078092844
:100B60000DDB01203B4908700020384908703849E6
:100B7000087004E00020354908703549087010BD40
:100B800010B5002440F225512A4801F0C9FB08B3F2
:100B9000284801F045FBC4B22F4830490978445435
:100BA0000078022811D12D480078401C2B4908708C
:100BB0000846007807280DDB01202949087000202D
:100BC000254908702549087004E000202249087072
:100BD0002249087010BD10B5002440F22551144878
:100BE000001F01F09DFB10B31148001F01F018FB1E
:100BF000C4B21C481C49097844540078012811D11A
:100C000019480078401C18490870084600780928DF
:100C10000DDB0120154908700020124908701249A7
:100C2000087004E000200F4908700F49087010BDDB
:100C3000044C0040003801400008014000440040DE
:100C400000480040000C0140001001403C0A002018
:100C50003C0800203B080020340800204008002009
:100C60003F080020450A00203E0800203D080020E3
:100C700070B504460E4626B10121FE4800F01DFF66
:100C800003E00121FB4800F01AFF1021F94800F0B1
:100C900016FF002517E02021F64800F010FF04F0B1
:100CA000800020B18021F34800F007FF03E080219D
:100CB000F04800F004FF2021EE4800F0FEFE600640
:100CC000040E681CC5B2082DE5DB1021E94800F0D0
:100CD000F4FE0121E74800F0F0FE70BD70B5044657
:100CE0000D4605F1B001C8B20021FFF7C1FF102188
:100CF00041EA14100021FFF7BBFF04F00F0141F09F
:100D000001000021FFF7B4FF70BD10B500218D2058
:100D1000FFF7AEFF00211420FFF7AAFF0021AF204C
:100D2000FFF7A6FF10BD10B500218D20FFF7A0FF33
:100D300000211020FFF79CFF0021AE20FFF798FF55
:100D400010BD70B5002419E004F1B001C8B2002153
:100D5000FFF78EFF00210846FFF78AFF00211020D1
:100D6000FFF786FF002505E001210020FFF780FF47
:100D7000681CC5B2802DF7DB601CC4B2082CE3DB15
:100D800070BD2DE9F04107460E469046002500242F
:100D9000A8F12000C5B27F2F02DD0027B01CC6B22B
:100DA00031463846FFF79AFF002408E004EB0511AE
:100DB000B14A505C0121FFF75BFF601CC4B2082CF4
:100DC000F4DB701CC1B23846FFF788FF002409E04D
:100DD00004EB05110831A84A505C0121FFF748FFD8
:100DE000601CC4B2082CF3DBBDE8F08110B50246EC
:100DF000012000E050430B00A1F10104E1B2F9D160
:100E000010BD2DE9FF5F074691461D460E9E4FF02F
:100E1000000A002433E0281B401EC1B20A20FFF75D
:100E2000E5FFB9FBF0F00A21B0FBF1F201FB12087B
:100E3000BAF1000F13D1681EA04210DDB8F1000F07
:100E40000BD1B34606EBDB71491001FB0471C8B24C
:100E500020220199FFF795FF0FE04FF0010AB346FA
:100E600006EBDB71491001FB0471C8B208F13001D7
:100E7000CAB20199FFF785FF00BF601CC4B2AC4243
:100E8000C9DBBDE8FF9F2DE9F04104460F4615463A
:100E900000260EE0AA5D39462046FFF772FF04F1F6
:100EA0000800C4B2782C02DD0024B81CC7B2701C44
:100EB000C6B2A85D0028EDD1BDE8F0812DE9F04172
:100EC00080460E461546002731464046FFF706FF8E
:100ED00000240AE0694A02EB8511085D0121FFF751
:100EE000C7FE781CC7B2601CC4B2102CF2DB701CA9
:100EF000C1B24046FFF7F2FE00240CE06900491C35
:100F00005E4A02EB4111085D0121FFF7B1FE781C3A
:100F1000C7B2601CC4B2102CF0DBBDE8F0812DE933
:100F2000F05F06460F4690461C46DDF828A04FF0BD
:100F3000000BE11704EB5171C910A4EBC10131B9E9
:100F40002046E11704EB5171C1F3C70506E02046C6
:100F5000E11704EB5171C910491CCDB23D4615E0B3
:100F600029463046FFF7BAFEB1460BE059460BF171
:100F7000010B1AF801000121FFF77AFE09F10100C7
:100F800000F0FF09C145F1DB681CC5B2A542E7DBF3
:100F9000BDE8F09F08B50121042000F09DFFB320BB
:100FA000ADF8000010208DF8030003208DF802003A
:100FB0006946304800F0D4FCB3212E4800F07DFD96
:100FC0000121082000F088FF4FF46070ADF80000A8
:100FD00010208DF8030003208DF802006946284890
:100FE00000F0BEFC4FF46071254800F066FD012161
:100FF000102000F071FF43F20300ADF80000102054
:101000008DF8030003208DF8020069461D4800F0AA
:10101000A7FC42F203011B4800F04FFD4FF4805142
:10102000184800F04CFD0121202000F055FF04205D
:10103000ADF8000010208DF8030003208DF80200A9
:101040006946114800F08CFC04210F4800F037FD80
:101050000221084800F031FD642000F060FB02210D
:10106000044800F02CFDC82000F059FB0221014883
:101070000CE0000000080140E03400084A080020AD
:10108000000C0140001001400014014000F015FD6B
:101090000021AE20FFF7ECFD00210846FFF7E8FD38
:1010A00000211020FFF7E4FD00214020FFF7E0FDC4
:1010B00000218120FFF7DCFD0021CF20FFF7D8FDC4
:1010C0000021A120FFF7D4FD0021C820FFF7D0FDAB
:1010D0000021A620FFF7CCFD0021A820FFF7C8FDC6
:1010E00000213F20FFF7C4FD0021D320FFF7C0FD02
:1010F00000210846FFF7BCFD0021D520FFF7B8FD11
:1011000000218020FFF7B4FD0021D920FFF7B0FDBA
:101110000021F120FFF7ACFD0021DA20FFF7A8FD48
:1011200000211220FFF7A4FD0021DB20FFF7A0FD26
:1011300000214020FFF79CFD00212020FFF798FDB3
:1011400000210220FFF794FD00218D20FFF790FD84
:1011500000211420FFF78CFD0021A420FFF788FD5B
:101160000021A620FFF784FD0021AF20FFF780FDBE
:101170000021AF20FFF77CFDFFF7E3FD00210846CB
:10118000FFF7ACFD08BD000008B54FF4E06000F0CB
:1011900019FB1C208DF8000001208DF801008DF84E
:1011A00002008DF80300684600F011FB08BD0EB583
:1011B0000121084600F09DFE4FF0804001F01CF92F
:1011C0004FF0804001F07CFD4FF47A70ADF80400E0
:1011D0004720ADF800000020ADF80600ADF8020091
:1011E00069464FF0804001F0DBF90121880701F0EA
:1011F000F9FF00214FF0804001F02EFE0122114640
:10120000900701F044FD0121880701F025FDFFF75B
:10121000BBFF0EBD10B50121880701F0E6FF00B34A
:101220000121880701F0F2FF12480088401C114993
:10123000088011480088401E0F4908800F48007838
:1012400020B10F480088401C0D4908800C480088D8
:101250000C490988884204DD0020084908700849C3
:10126000088010BD0449088000BF0349098800298F
:10127000FBD170470C0A00200A0A00201C0A00203B
:10128000180A00201A0A002008B50121102000F0D9
:1012900023FE4FF47070ADF8000010208DF80300AD
:1012A00003208DF802006946064800F059FB4FF410
:1012B000C071044800F001FC4FF41071014800F0C7
:1012C000FEFB08BD001001400020B4490880B4496D
:1012D0000880B4490870B448B449086008460068FA
:1012E000B34908607047002004E00021AE4A115461
:1012F000411C88B2C828F8DBAB49AC4A1160704782
:1013000010B504462146A84801F084FF08B1012029
:1013100010BD0020FCE72DE9F04104460D461646BD
:10132000A046FFF7E0FF002727E02846FFF7E8FF89
:10133000F8B99C48007800BB44460BE000BF402150
:101340009C4800F0D7FF0028F9D02178994800F098
:1013500063FF641C20780028F0D197A001F028F8E2
:1013600000208E4908808E48068001208D49087033
:1013700003E0012700208B490870002FD5D0FFF72C
:10138000B2FFBDE8F08170B5002527E0FFF7ABFFA5
:101390008AA001F00DF888A001F00AF841F2883027
:1013A00000F0BDF9002413E07F48005D3A280DD11C
:1013B0007D49201D085C312803D0201D085C35289C
:1013C00004D101257CA000F0D5FF03E0601CC4B26D
:1013D000C82CE9DB00BF7CA000F0CCFF002DD5D0ED
:1013E00070BD10B540F6B8327AA17BA0FFF793FF2D
:1013F00010BD10B57AA000F0DBFF4FF4FA60FFF7E4
:1014000031FF7BA000F0D4FF4FF4FA60FFF72AFF12
:101410007BA000F0CDFF4FF4FA60FFF723FF7DA023
:1014200000F0C6FF4FF4FA60FFF71CFF80A000F049
:10143000BFFF4FF4FA60FFF715FF81A000F0B8FF7F
:101440004FF4FA60FFF70EFF41F2883280A1824824
:101450000068FFF760FF4FF4FA50FFF703FFFFF754
:1014600042FF7EA000F0A4FF40F6B830FFF7FAFE7E
:101470007EA000F09DFF4FF4FA50FFF7F3FE1A2113
:101480004C4800F0C9FE40F6B830FFF7EBFEFFF71E
:101490002AFF10BD10B546480068444909688842D3
:1014A0001AD000BF4021434800F024FF0028F9D0A3
:1014B0003F48006801783F4800F0AEFE3C480068B5
:1014C000401C3B490860084601683748C8308142E3
:1014D00002D9C8383649086010BD10B5002440F262
:1014E0002551344800F01CFF002855D0314800F049
:1014F00097FEC4B22C486249097844546048007889
:10150000401C5F49087008460078C82801DD0020AB
:10151000087026480068047024480068401C23496D
:101520000860084601682048C830814202D9C8389E
:101530001E49086053A11C4801F06CFE58B14FF4DD
:101540000071524800F0BBFA0121514800F0B5FA91
:10155000FFF7C9FE20E04FA1134801F05BFE58B130
:101560004FF40071494800F0A8FA0121484800F002
:10157000A6FAFFF7B8FE0FE048A10B4801F04AFEBB
:1015800050B14FF40071414800F097FA01214048F2
:1015900000F093FAFFF7A7FE10BD0000180A002024
:1015A0001A0A00201C0A0020160B0020100A002036
:1015B000140A0020004400400D0A000041542B434F
:1015C0005245473F00000000D7A2B2E1D6D02E2EF0
:1015D0002E2E2E004F4B00004154453000000000DD
:1015E00041542B434950434C4F53450D0A000000D2
:1015F00041542B434950534855540D0A00000000F4
:1016000041542B4347434C4153533D2242220D0A40
:101610000000000041542B434744434F4E543D319A
:101620002C224950222C22434D4E4554220D0A00B3
:1016300041542B43474154543D310D0A00000000F2
:1016400041542B43474143543D312C310D0A000096
:10165000434F4E4E45435400200A002041542B4333
:10166000495053454E440D0A000000003056573291
:101670004A31474438395855373033360000000076
:101680001D0A00206764316B00000000000C01405F
:10169000001001406764326B000000006764336B28
:1016A0000000000010B56FF0040000F0DAF82E48DA
:1016B00000682E49B0FBF1F02D490870084600780B
:1016C00000EB4001C1EBC0104FF6FF7101EAC00012
:1016D0002849088010BD0146254A12784A434FF038
:1016E000E0235A6100229A611A46126942F001020F
:1016F0001A6100BF4FF0E022106900F001021AB138
:1017000000F48032002AF5D04FF0E022126922F076
:1017100001024FF0E0231A6100229A6170470146EE
:10172000144A12884A434FF0E0235A6100229A611A
:101730001A46126942F001021A6100BF4FF0E0221E
:10174000106900F001021AB100F48032002AF5D0CD
:101750004FF0E022126922F001024FF0E0231A61FB
:1017600000229A61704700002008002000127A00D1
:10177000240A0020260A002010B54FF4A06000F0D3
:1017800021F810BD0948804709480047FEE7FEE7F9
:10179000FEE7FEE7FEE7FEE7FEE7FEE7FEE7FEE721
:1017A00004480549054A064B704700007F070008BA
:1017B00031010008400C002040120020400E0020A3
:1017C000400E002031490143314A1160704770B525
:1017D000002100230F22C47804B32D4C246804F4A4
:1017E000E064C4F5E064210AC1F10403CA4044780E
:1017F00004FA03F18478144021430901254C06784A
:10180000A155047804F01F050124AC4005786D1142
:10181000AD0005F1E025C5F8004109E0047804F0C9
:101820001F050124AC401C4D0678761145F8264072
:1018300070BD1A4A0A400243154B1B1F1A607047BD
:1018400039B1134A121D12680243114B1B1D1A6055
:1018500006E00F4A121D126882430D4B1B1D1A60D1
:101860007047042808D14FF0E021096941F00401D4
:101870004FF0E022116107E04FF0E021096921F00B
:1018800004014FF0E0221161704700000000FA05EA
:101890000CED00E000E400E080E100E080FFFF1FCD
:1018A00010B50446CC48844208D10121042000F040
:1018B0002DFB0021042000F029FB46E0C7488442AC
:1018C00008D10121082000F021FB0021082000F0B0
:1018D0001DFB3AE0C248844208D10121102000F0EB
:1018E00015FB0021102000F011FB2EE0BD488442C2
:1018F00008D10121202000F009FB0021202000F068
:1019000005FB22E0B848844208D10121402000F0C4
:10191000FDFA0021402000F0F9FA16E0B3488442B5
:1019200008D10121802000F0F1FA0021802000F090
:10193000EDFA0AE0AE48844207D10121801500F09B
:10194000E5FA0021A01500F0E1FA10BD10B5012163
:10195000084600F0DBFA0021012000F0D7FA10BDA4
:101960002DE9F04102460025002600200023002436
:10197000002791F803C00CF00F0591F803C00CF09C
:10198000100CBCF1000F03D091F802C04CEA050521
:1019900091F800C0BCF1000F31D0146800202BE09A
:1019A0004FF0010C0CFA00F3B1F800C00CEA03068A
:1019B0009E4220D183004FF00F0C0CFA03F7BC437A
:1019C00005FA03FC4CEA040491F803C0BCF1280FAB
:1019D00006D14FF0010C0CFA00FCC2F814C00AE06A
:1019E00091F803C0BCF1480F05D14FF0010C0CFA7F
:1019F00000FCC2F810C0401C0828D1D31460B1F814
:101A000000C0BCF1FF0F34DD546800202EE000F16F
:101A1000080C4FF0010808FA0CF3B1F800C00CEA0A
:101A200003069E4221D183004FF00F0C0CFA03F7FE
:101A3000BC4305FA03FC4CEA040491F803C0BCF172
:101A4000280F05D100F1080C08FA0CF8C2F8148030
:101A500091F803C0BCF1480F07D100F1080C4FF01A
:101A6000010808FA0CF8C2F81080401C0828CED3F0
:101A70005460BDE8F0814FF6FF7101800221817052
:101A80000421C17070470246002093680B400BB1DF
:101A9000012000E0002070470146886880B270474E
:101AA00002460020D3680B400BB1012000E000206B
:101AB00070470146C86880B2704701617047416154
:101AC00070470AB1016100E041617047C160704731
:101AD0004FF480320A438261816182618269826946
:101AE000704702460020434B18684FF68073184039
:101AF00040EA021008433F4B186070473E49C861F6
:101B00007047F0B50A46002300240021002500F0AC
:101B10000046B6F1004F02D1364EF16901E0354E74
:101B20007168C0F3034583B200F44016B6F5401F58
:101B300008D121F070612F4E766826F070662D4F27
:101B40007E6012E000F48016B6F5801F06D10326F1
:101B500006FA05F4A14341F0706106E0460D360136
:101B600003FA06F6B14341F0706122B1460D360129
:101B700003FA06F6314300F00046B6F1004F02D1F9
:101B80001C4EF16101E01B4E7160F0BD30B50022CA
:101B90008B071C0F0F2303FA04F2164B08338C102B
:101BA00053F824309343134C08348D1044F82530F7
:101BB00023468C1053F824308C07240F00FA04F4C9
:101BC00023430C4C08348D1044F8253030BD0A49AD
:101BD000DC3108607047000000080140000C014043
:101BE000001001400014014000180140001C014099
:101BF000002001400000014000002042DF48006852
:101C000040F00100DD49086008464068DC490840B2
:101C1000DA49486008460068DA490840D749086050
:101C20000846006820F4802008600846406820F4D8
:101C3000FE0048604FF41F0088607047CF49096874
:101C400021F48031CD4A11601146096821F48021C8
:101C50001160B0F5803F03D0B0F5802F0ED106E0C3
:101C6000C649096841F48031C44A116007E0C3499C
:101C7000096841F4A021C14A116000E000BF00BF23
:101C8000704710B501460022002300204A11012AA6
:101C900002D1BA4C236806E0022A02D1B74C236A6B
:101CA00001E0B64C636A01F01F02012494401C401D
:101CB0000CB1012000E0002010BD38B500200090DC
:101CC0000024002500BF3120FFF7DBFF0546009808
:101CD000401C00900098B0F5A06F01D0002DF2D00C
:101CE0003120FFF7CEFF08B1012400E00024204698
:101CF00038BD01460020A14A106820F0F80040EAF3
:101D0000C10010607047A04908607047024600207B
:101D10009A4B586820F47C1042EA01031843974B11
:101D20005860704798490866704701460020934AFA
:101D3000506820F003000843506070478F484068A7
:101D400000F00C007047014600208C4A506820F0DB
:101D5000F00008435060704701460020874A5068F1
:101D600020F4E06008435060704701460020834A39
:101D7000506820F4605040EAC1005060704729B1BB
:101D80007E4A527A02437D4B5A7204E07B4A527A71
:101D900082437A4B5A7270477B49D831086070474A
:101DA00001460020754A506820F4404008435060C6
:101DB00070470021714A20321170704A82F8201059
:101DC000012802D004280AD104E001216B4A203204
:101DD000117005E00521694A2032117000E000BF52
:101DE00000BF70476949086070476449096A014348
:101DF000624A11627047654944390860704730B5DE
:101E000000210022002400235C4D6D6805F00C01C8
:101E100021B1042905D0082923D105E05C4D0560D6
:101E200022E05B4D05601FE0544D6D6805F47012B3
:101E3000524D6D6805F48034022505EB92421CB9C1
:101E4000544D554305600BE04C4D6D6805F400356D
:101E50001DB1504D5543056002E04D4D55430560A1
:101E600002E04B4D056000BF00BF444D6D6805F0BA
:101E7000F0010909484D6B5C0568DD4045603F4D48
:101E80006D6805F4E061090A434D6B5C4568DD400F
:101E900085603A4D6D6805F46051C90A3E4D6B5C32
:101EA0004568DD40C560354D6D6805F44041890BDE
:101EB0003A4D6B5CC568B5FBF3F5056130BD29B1E2
:101EC0002E4A526902432D4B5A6104E02B4A526953
:101ED00082432A4B5A61704729B1284A92690243CA
:101EE000264B9A6104E0254A92698243234B9A610A
:101EF000704729B1214AD2690243204BDA6104E0DC
:101F00001E4AD26982431D4BDA61704729B11B4AD0
:101F1000D2680243194BDA6004E0184AD26882435F
:101F2000164BDA60704729B1144A12690243134B09
:101F30001A6104E0114A12698243104B1A6170471A
:101F400012494039086070470F49C86470470B490F
:101F5000C87170470948406A40F08070074948627C
:101F6000704701460020054A92680A400AB10120E4
:101F700000E000207047014988727047001002405D
:101F80000000FFF8FFFFF6FE0000424280044242DC
:101F900000127A0000093D00280A0020380A0020BB
:101FA00010B50446FD48844209D101218803FFF79A
:101FB000ADFF00214FF48040FFF7A8FF32E0F84862
:101FC000844209D101214804FFF7ADFF00214FF4FD
:101FD0000030FFF7A8FF25E0F248844209D1012133
:101FE0008804FFF7A0FF00214FF48020FFF79BFF3C
:101FF00018E0ED48844209D10121C804FFF793FF9E
:1020000000214FF40020FFF78EFF0BE0E7488442E9
:1020100008D101210805FFF786FF00214FF4801049
:10202000FFF781FF10BD2DE9F04786B005460E464B
:102030000024A24600BFA1460027B08900B100BF1E
:102040002F462C8A4CF6FF700440F08804432C8203
:10205000AC894EF6F3100440B08831890843718989
:1020600008430443AC81AC8A4FF6FF400440B0897A
:102070000443AC8201A8FFF7C2FEC848874202D1E0
:10208000DDF810A001E0DDF80CA0A88900F4004004
:1020900040B10AEBCA0000EB0A1031684900B0FBFE
:1020A000F1F807E00AEBCA0000EB0A10316889007A
:1020B000B0FBF1F86420B8FBF0F0040120096421C2
:1020C00001FB1089A88900F4004040B1322000EBE8
:1020D000C900B0FBF1F000F00700044308E0322033
:1020E00000EB09106421B0FBF1F000F00F00044395
:1020F0002C8106B0BDE8F0874FF416510160002135
:102100008180C18001810C21418100218181704742
:1021100010B502460020108A4FF2FF0318400B88CA
:102120004C8823438C882343CC8823431843108254
:1021300010BD0021018041808180C180704721B1A4
:10214000828942F40052828104E082894DF6FF7355
:102150001A4082817047F0B503460024002600250E
:10216000002040F66A17B94200D100BF1846C1F3FB
:10217000421401F01F06012707FA06F5012C01D1D0
:102180000C3004E0022C01D1103000E014301AB100
:1021900007682F43076002E00768AF430760F0BDA0
:1021A0001AB1838A0B43838202E0838A8B43838242
:1021B0007047028A4FF6F0731A400282028A0A437D
:1021C0000282704782894FF2FF731A4082818289AE
:1021D0000A438281704721B1828942F002028281E2
:1021E00004E082894FF6FD731A4082817047028AAB
:1021F0004FF6DF731A400282028A0A430282704756
:1022000021B1028A42F48042028204E0028A4BF643
:10221000FF731A4002827047C1F308028280704740
:1022200001468888C0F308007047818941F00101A8
:1022300081817047028BD2B20283028B42EA012273
:1022400002837047028B02F47F420283028B0A43AF
:102250000283704721B1828A42F02002828204E028
:10226000828A4FF6DF731A408282704721B1828AD8
:1022700042F01002828204E0828A4FF6EF731A4025
:102280008282704721B1828A42F00802828204E091
:10229000828A4FF6F7731A408282704721B1828991
:1022A00042F40042828103E08289C2F30E028281FD
:1022B000704721B1828A42F40062828204E0828AFD
:1022C0004FF2FF731A4082827047828A4FF6FB7387
:1022D0001A408282828A0A438282704721B1828AAE
:1022E00042F00202828204E0828A4FF6FD731A40B5
:1022F0008282704702460020B1F5007F00D100BF06
:1023000013880B400BB1012000E00020704701F45E
:102310000072B2F5007F00D100BFCA43028070474F
:1023200070B50246002400230025002040F66A16FE
:10233000B14200D100BFC1F3421501F01F030126D5
:1023400006FA03F3012D02D19689334006E0022DEF
:1023500002D1168A334001E0968A33400C120126DE
:1023600006FA04F41688344013B10CB1012000E0E1
:10237000002070BD10B504460BE000BF40210748A7
:10238000FFF7B8FF0028F9D014F8011B0348FFF746
:1023900043FF20780028F0D110BD00000038014034
:1023A0000044004000480040004C00400050004005
:1023B00010B504460BE000BF40210E48FFF79AFF1E
:1023C0000028F9D014F8011B0A48FFF725FF2078F0
:1023D0000028F0D110BD10B50022002340F66A1489
:1023E000A14200D100BF0A1201249440A3B2DC43F1
:1023F000048010BD0044004010B50446FE488442ED
:1024000008D10121C014FFF781FD0021E014FFF77E
:102410007DFDC4E0B4F1804F08D101210846FFF7EB
:1024200082FD00210120FFF77EFDB8E0F3488442E1
:1024300008D101210220FFF776FD00210220FFF7DD
:1024400072FDACE0EE48844208D101210420FFF780
:102450006AFD00210420FFF766FDA0E0E948844200
:1024600008D101210820FFF75EFD00210820FFF7B9
:102470005AFD94E0E448844208D101211020FFF77E
:1024800052FD00211020FFF74EFD88E0DF48844216
:1024900008D101212020FFF746FD00212020FFF771
:1024A00042FD7CE0DA48844208D101214014FFF764
:1024B0002DFD00216014FFF729FD70E0D54884420E
:1024C00009D10121C804FFF721FD00214FF40020AC
:1024D000FFF71CFD63E0D048844209D101210805C3
:1024E000FFF714FD00214FF48010FFF70FFD56E0B9
:1024F000CA48844209D101214805FFF707FD0021A0
:102500004FF40010FFF702FD49E0C548844208D1AE
:1025100001214020FFF707FD00214020FFF703FDC8
:102520003DE0C048844208D101218020FFF7FBFC38
:1025300000218020FFF7F7FC31E0BB48844208D13E
:1025400001218015FFF7EFFC0021A015FFF7EBFC40
:1025500025E0B648844209D101210804FFF7D6FCE2
:1025600000214FF48030FFF7D1FC18E0B0488442DE
:1025700009D101214804FFF7C9FC00214FF40030C4
:10258000FFF7C4FC0BE0AB48844208D1012188046A
:10259000FFF7BCFC00214FF48020FFF7B7FC10BD13
:1025A00000220288944B98420ED0994B98420BD04F
:1025B000B0F1804F08D0914B984205D0904B984293
:1025C00002D0904B984204D14FF68F731A404B883B
:1025D0001A438D4B984207D08C4B984204D04FF64B
:1025E000FF431A40CB881A4302808B8883850B886F
:1025F0000385814B98420BD0854B984208D08B4B7A
:10260000984205D08A4B984202D08A4B984201D119
:102610000B7A038601238382704770B50024002261
:102620000023058C4FF6FE7635400584028C8388A6
:10263000048B4FF68F752C40B51E2C400D882C4313
:10264000751E2A400D892A434D882A436A4DA842A7
:102650000BD06F4DA84208D0744DA84205D0744DE0
:10266000A84202D0734DA84213D14FF6F7752A4005
:102670004D892A434FF6FB752A408D882A434FF631
:10268000FF652B404FF6FF552B408D892B43CD899D
:102690002B4383800483CD888586028470BD70B50A
:1026A000002400220023058C4FF6EF763540058488
:1026B000028C8388048B48F6FF752C404FF6FF454B
:1026C0002C400D884FF6FF7606EA05252C434FF681
:1026D000DF752A400D8906EA05152A434D8806EA6A
:1026E00005152A43444DA84202D0494DA8421DD1A8
:1026F0004FF67F752A404D894FF6FF7606EA05159D
:102700002A434FF6BF752A408D8806EA05152A43ED
:102710004FF6FF352B404FF2FF752B408D8906EAAF
:1027200085052B43CD8906EA85052B4383800483E9
:10273000CD880587028470BD70B500240022002377
:10274000058C4FF6FF6635400584028C8388848BA8
:102750004FF68F752C404FF6FC752C400D882C439E
:102760004FF6FF552A400D894FF6FF7606EA0525FC
:102770002A434D8806EA05252A431F4DA84202D068
:10278000234DA8421DD14FF2FF752A404D894FF6C7
:10279000FF7606EA05252A434FF6FF352A408D8845
:1027A00006EA05252A434EF6FF752B404DF6FF75C8
:1027B0002B408D8906EA05152B43CD8906EA0515C0
:1027C0002B4383808483CD888587028470BD70B558
:1027D000002200230024058C4EF6FF763540058448
:1027E000038C8488828B48F6FF752A404FF6FF459C
:1027F0002A400D8820E00000002C01400004004029
:1028000000080040000C0040001000400014004090
:1028100000340140004C0140005001400054014090
:1028200000180040001C0040002000400040014013
:1028300000440140004801404FF6FF7606EA0525B6
:102840002A434DF6FF752B400D8906EA05352B43CB
:102850004D8806EA05352B43FA4DA84202D0FA4DC1
:10286000A84208D14BF6FF752C408D894FF6FF76B4
:1028700006EA85152C4384808283CD88A0F84050D9
:10288000038470BD828B4FF2FF331A408283828BA8
:102890004FF6FF7303EA01231A4382837047F0B5B2
:1028A0000C461546002200210026078C4EF6FF7CC0
:1028B00007EA0C070784828B018C4FF6FF7707EA43
:1028C000043640F6FF473A404FF6FF7707EA052700
:1028D0003A434FF6FF7707EA03373A43D94FB842F6
:1028E0000ED0D94FB8420BD0B0F1804F08D0D74F9F
:1028F000B84205D0D64FB84202D0D64FB84206D122
:102900004DF6FF77394046F48057394305E047F6E6
:10291000FF57394044F48057394382830184F0BD26
:10292000828B4FF6F3731A408283828B0A43828331
:102930007047F0B50C461546002200210026078C92
:102940004FF6FF6C07EA0C070784828B018C4FF669
:10295000FF7707EA04264FF60C773A404FF6FF77E9
:1029600007EA03172F433A43B64FB8420ED0B64F8B
:10297000B8420BD0B0F1804F08D0B44FB84205D068
:10298000B34FB84202D0B34FB84206D14FF6FF570B
:10299000394046F48077394305E04FF2FF5739401C
:1029A00044F48077394382830184F0BD028B4FF277
:1029B000FF331A400283028B4FF6FF7303EA0123B1
:1029C0001A4302837047F0B50C46154600220021D9
:1029D0000026078C4FF6EF7C07EA0C070784028B72
:1029E000018C4FF6FF7707EA041640F6FF473A409E
:1029F0004FF6FF7707EA03373A434FF6FF7707EAC8
:102A000005273A438F4FB8420ED08F4FB8420BD0B4
:102A1000B0F1804F08D08D4FB84205D08C4FB842EE
:102A200002D08C4FB84206D14FF6DF77394046F0DE
:102A30001007394305E04FF65F77394044F010073F
:102A4000394302830184F0BD028B4FF6F3731A40C1
:102A50000283028B0A4302837047F0B50C46154689
:102A600000220021068C4FF6FE773E400684028B42
:102A7000018C4FF60C7632407E1C06EA03162E437C
:102A80003243704EB0420ED06F4EB0420BD0B0F118
:102A9000804F08D06D4EB04205D06D4EB04202D08E
:102AA0006C4EB04206D14FF6FD76314044F001063F
:102AB000314305E04FF6F576314044F001063143ED
:102AC00002830184F0BD70B505460C465D48854221
:102AD0000ED05D4885420BD0B5F1804F08D05B48E1
:102AE000854205D05A48854202D05A48854200D1D5
:102AF00000E000BF208850B92389A2886188284659
:102B0000FFF7ABFFE1882846FFF79EFF25E020880E
:102B100004280AD12389A28861882846FFF753FF39
:102B2000E1882846FFF742FF17E0208808280AD1ED
:102B30002389A28861882846FFF7FBFEE1882846A2
:102B4000FFF7EEFE09E02389A28861882846FFF797
:102B5000A6FEE1882846FFF795FE70BD2DE9F041FD
:102B600005460C4600260127608808B9022600E0C9
:102B70000026A088012801D1022700E00127208833
:102B8000A0B92389A28861882846FFF766FFE188FB
:102B90002846FFF759FF23893A4631462846FFF772
:102BA00012FFE1882846FFF701FF13E02389A2887E
:102BB00061882846FFF707FFE1882846FFF7F6FE01
:102BC00023893A4631462846FFF747FFE1882846E1
:102BD000FFF73AFFBDE8F0810A884B881A438B88DB
:102BE0001A43CB881A430B891A434B891A438B89A2
:102BF0001A43A0F8442070474FF6FF7181800021EE
:102C00000180C180418001727047002101804180B4
:102C10008180C180018141818181C1817047002112
:102C200001804180012181800021C18001817047A4
:102C30000021018041808180C180018141818181A9
:102C400070470000002C01400034014000040040A7
:102C500000080040000C004021B1028842F001024F
:102C6000028004E002884FF6FE731A40028070472B
:102C700031B1B0F8442042F40042A0F8442005E00D
:102C8000B0F84420C2F30E02A0F8442070471AB1F5
:102C900083890B43838102E083898B43838170475F
:102CA0008182704741EA0203A0F8483070471AB1A8
:102CB00083890B43838102E083898B43838170473F
:102CC00001894FF6F8721140018170470A460021D0
:102CD00001894FF68F73194011430181704730B558
:102CE00004460D4629462046FFF7F0FF208940F0B4
:102CF0000700208130BD2DE9F04104460D461646FF
:102D00001F46602D06D13B46012231462046FFF783
:102D10005AFE05E03B46012231462046FFF79DFE64
:102D200029462046FFF7D2FF208940F00700208186
:102D3000BDE8F08130B50C4600210189C9B24FF6DB
:102D4000FF7505EA0325154325432943018130BD5D
:102D50002DE9F04105460E461746984600244346A5
:102D60003A4631462846FFF7E5FF2C894FF6F870C2
:102D7000044044F007044FF68F70044044F07004A0
:102D80002C81BDE8F081F0B504460D4616461F467D
:102D90003B46324629462046FFF7CCFF208940F4C7
:102DA00080402081F0BD0185828270470A46002163
:102DB00001884FF68F731940114301807047F0B5B9
:102DC0000C4615461E460021002200230189028B75
:102DD000038C4FF6F877394021434FF6FC473A40D1
:102DE00040F201173A434FF6DD773B404FF6FF774D
:102DF00007EA06172F433B43018102830384F0BD9A
:102E00000A460021018B4FF68F731940114301834D
:102E100070470A460021018B48F6FF7319404FF6B0
:102E2000FF7303EA02231943018370470A46002116
:102E3000818B4FF68F7319401143818370470A4687
:102E40000021818B48F6FF7319404FF6FF7303EAA8
:102E5000022319438183704721B1028842F0800226
:102E6000028004E002884FF67F731A4002807047A8
:102E700021B1828842F00402828004E082884FF609
:102E8000FB731A408280704721B1828842F00802A9
:102E9000828004E082884FF6F7731A408280704780
:102EA00021B1828842F00102828004E082884FF6DC
:102EB000FE731A40828070470A460021018B4FF64C
:102EC000F77319401143018370470A460021018BB3
:102ED0004FF2FF7319404FF6FF7303EA02231943C1
:102EE000018370470A460021818B4FF6F773194022
:102EF0001143818370470A460021818B4FF2FF7393
:102F000019404FF6FF7303EA022319438183704788
:102F10000A460021018B4FF6FB73194011430183D0
:102F200070470A460021018B4FF6FF3319404FF6D8
:102F3000FF7303EA02231943018370470A46002105
:102F4000818B4FF6FB7319401143818370470A460A
:102F50000021818B4FF6FF3319404FF6FF7303EAD0
:102F600002231943818370470A460021018B4FF6E3
:102F70007F7319401143018370470A460021018B7A
:102F8000C1F30E014FF6FF7303EA022319430183D5
:102F900070470A460021818B4FF67F731940114319
:102FA000818370470A460021818BC1F30E014FF6E1
:102FB000FF7303EA02231943818370470A46002105
:102FC000018C4FF6FD7319401143018470470A4686
:102FD0000021018C4FF6F7731940114301847047AB
:102FE0000A460021018C4FF6DF7319404FF6FF733C
:102FF00003EA02131943018470470A460021018C39
:103000004FF67F7319404FF6FF7303EA021319431B
:10301000018470470A460021018C4FF6FF53194086
:103020004FF6FF7303EA02231943018470470A46EF
:103030000021018C4FF2FF7319404FF6FF7303EA32
:1030400002231943018470470A460021018C4DF682
:10305000FF7319404FF6FF7303EA023319430184EB
:10306000704730B5002301248C40A3B2048C9C43EC
:103070000484048C02FA01F5ADB22C43048430BD03
:1030800030B5002304248C40A3B2048C9C430484F8
:10309000048C02FA01F5ADB22C43048430BD70B546
:1030A0000346002000241846183001258D40ACB29C
:1030B0001D8CA5431D8409B1082909D100EB6100CD
:1030C000056825F0700505600568154305600EE08C
:1030D0000D1FC5F34E052844056825F4E04505603D
:1030E00005684FF6FF7606EA02263543056070BD97
:1030F00021B1028842F00202028004E002884FF609
:10310000FD731A400280704721B1028842F0040228
:10311000028004E002884FF6FB731A400280704779
:1031200021B1828842F08002828004E082884FF6DA
:103130007F731A408280704702884FF6F7731A40F7
:10314000028002880A430280704782884FF68F739C
:103150001A40828082880A438280704702894FF633
:10316000F8731A40028102890A430281704702897A
:103170004FF67F731A40028102890A430281704729
:1031800081847047818570478186704701877047C9
:1031900081877047A0F84010704702884FF6FF43C0
:1031A0001A40028002880A43028070470146888ED6
:1031B00070470146088F70470146888F7047014667
:1031C000B1F8400070470146888C70470146088D71
:1031D000704702460020138A0B400BB1012000E02B
:1031E00000207047CA430282704730B50246002073
:1031F00000230024158A05EA0103958905EA0104E4
:1032000013B10CB1012000E0002030BDCA4302829E
:103210007047704730B505460B462A4613F8014BF8
:1032200012F8010B08B1A042F8D01CB1002802D05E
:103230006D1CF1E7284630BD7047704770477047F6
:10324000754600F029F8AE4605006946534620F061
:103250000700854618B020B5FEF7A2FABDE8204069
:103260004FF000064FF000074FF000084FF0000B42
:1032700021F00701AC46ACE8C009ACE8C009ACE8F5
:10328000C009ACE8C0098D4670470446AFF3008022
:103290002046FCF7B8FF000000487047E00B002014
:1032A000020300000002C438010300000002C40B46
:1032B000020300000001843900000000000000004B
:1032C000002F000000000700070000147F147F1487
:1032D00000242A7F2A12006264081323003649550D
:1032E000225000000503000000001C2241000000E5
:1032F00041221C000014083E08140008083E08087B
:10330000000000A0600000080808080800006060D5
:103310000000002010080402003E5149453E000014
:10332000427F4000004261514946002141454B31F6
:10333000001814127F10002745454539003C4A49C2
:103340004930000171090503003649494936000634
:103350004949291E0000363600000000563600009C
:103360000008142241000014141414140000412217
:10337000140800020151090600324959513E007CEF
:103380001211127C007F49494936003E41414122D9
:10339000007F4141221C007F49494941007F0909C2
:1033A0000901003E4149497A007F0808087F000072
:1033B000417F4100002040413F01007F081422412D
:1033C000007F40404040007F020C027F007F0408E5
:1033D000107F003E4141413E007F09090906003E41
:1033E0004151215E007F091929460046494949316A
:1033F0000001017F0101003F4040403F001F20408D
:10340000201F003F4038403F00631408146300074A
:103410000870080700615149454300007F414100A1
:1034200000552A552A55000041417F000004020141
:10343000020400404040404000000102040000201F
:1034400054545478007F484444380038444444205D
:1034500000384444487F00385454541800087E090A
:1034600001020018A4A4A47C007F080404780000D2
:10347000447D4000004080847D00007F102844008F
:103480000000417F4000007C04180478007C0804A0
:10349000047800384444443800FC242424180018DC
:1034A000242418FC007C08040408004854545420C8
:1034B00000043F444020003C4040207C001C204051
:1034C000201C003C4030403C004428102844001C94
:1034D000A0A0A07C004464544C441414141414148C
:1034E00000000000000000000000000000000000DC
:1034F000000000F800000000000000333000000071
:1035000000100C06100C0600000000000000000077
:1035100040C07840C0784000043F04043F040400E9
:10352000007088FC08300000001820FF211E0000F9
:10353000F008F000E018000000211C031E211E000E
:1035400000F00888700000001E2123241927211094
:1035500010160E0000000000000000000000000037
:10356000000000E0180402000000000718204000DE
:1035700000020418E00000000040201807000000CE
:10358000404080F0804040000202010F0102020032
:10359000000000F0000000000101011F0101010016
:1035A000000000000000000080B07000000000007B
:1035B0000000000000000000000101010101010104
:1035C000000000000000000000303000000000009B
:1035D0000000000080601804006018060100000070
:1035E00000E010080810E000000F102020100F006D
:1035F000001010F8000000000020203F20200000F4
:10360000007008080888700000302824222130004B
:1036100000300888884830000018202020110E0053
:103620000000C02010F8000000070424243F2400FC
:1036300000F80888880808000019212020110E00D1
:1036400000E0108888180000000F112020110E00E3
:1036500000380808C83808000000003F00000000DB
:103660000070880808887000001C222121221C009C
:1036700000E010080810E0000000312222110F00C5
:10368000000000C0C000000000000030300000005A
:1036900000000080000000000000806000000000CA
:1036A00000008040201008000001020408102000E3
:1036B000404040404040400004040404040404002E
:1036C00000081020408000000020100804020100C3
:1036D000007048080808F0000000003036010000C3
:1036E000C030C828E810E0000718272423140B0076
:1036F0000000C038E0000000203C230202273820F0
:1037000008F8888888700000203F202020110E00D3
:10371000C0300808080838000718202020100800CA
:1037200008F808080810E000203F202020100F00B3
:1037300008F88888E8081000203F2020232018007F
:1037400008F88888E8081000203F200003000000E7
:10375000C03008080838000007182020221E020088
:1037600008F808000008F808203F210101213F2047
:10377000000808F8080800000020203F2020000072
:1037800000000808F8080800C08080807F00000062
:1037900008F888C028180800203F2001263820009B
:1037A00008F8080000000000203F20202020300002
:1037B00008F8F800F8F80800203F003F003F20001C
:1037C00008F830C00008F808203F200007183F0024
:1037D000E01008080810E0000F10202020100F0053
:1037E00008F808080808F000203F21010101000046
:1037F000E01008080810E0000F18242438504F008B
:1038000008F8888888887000203F2000030C30204A
:1038100000708808080838000038202121221C0088
:10382000180808F8080818000000203F20000000D1
:1038300008F808000008F808001F202020201F00BA
:103840000878880000C83808000007380E0100001A
:10385000F80800F80008F800033C0700073C0300E4
:10386000081868808068180820302C03032C30204A
:103870000838C800C83808000000203F20000000B9
:1038800010080808C8380800203826212020180011
:10389000000000FE020202000000007F40404000E5
:1038A000000C30C000000000000000010638C0001D
:1038B00000020202FE000000004040407F000000C5
:1038C00000000402020204000000000000000000EA
:1038D00000000000000000008080808080808080E8
:1038E00000020204000000000000000000000000D0
:1038F00000008080808000000019242222223F20C6
:1039000008F8008080000000003F112020110E0008
:103910000000008080800000000E11202020110097
:10392000000000808088F800000E112020103F2049
:103930000000808080800000001F222222221300CD
:10394000008080F0888888180020203F2020000018
:103950000000808080808000006B949494936000CD
:1039600008F8008080800000203F210000203F20D8
:1039700000809898000000000020203F20200000D8
:10398000000000809898000000C08080807F0000C8
:1039900008F8000080808000203F24022D302000A5
:1039A000000808F8000000000020203F2020000050
:1039B0008080808080808000203F20003F20003F6A
:1039C0008080008080800000203F210000203F2078
:1039D0000000808080800000001F202020201F0029
:1039E000808000808000000080FFA12020110E0058
:1039F0000000008080808000000E112020A0FF8049
:103A0000808080008080800020203F2120000100F5
:103A1000000080808080800000332424242419004A
:103A2000008080E0808000000000001F2020000057
:103A30008080000000808000001F202020103F2098
:103A4000808080000080808000010E300806010028
:103A500080800080008080800F300C030C300F00CD
:103A600000808000808080000020312E0E312000F8
:103A7000808080000080808080818E701806010028
:103A800000808080808080000021302C2221300046
:103A900000000000807C020200000000003F404067
:103AA00000000000FF00000000000000FF00000018
:103AB0000002027C800000000040403F0000000047
:103AC00000060101020204040000000000000000E2
:103AD00041542B43495053544152543D2254435076
:103AE000222C227463702E746C696E6B2E696F22A7
:103AF0002C38363437000000183B00080000002046
:103B00003C0A00006C010008F43D00083C0A00205B
:103B100004080000D001000840120003050911FF4D
:103B2000118905C300E000F000F8000100083A44E4
:103B300028FF11AA440001500B830138448292925D
:103B40007401831120087C44FF017D7D7D044105C3
:103B500040047D01FF6E920102613F033B01017E43
:103B600081419149F20101011BC230083F3F03032B
:103B7000F3131101100601F11161814020058161EB
:103B800011F14733414107200401C12120A321C184
:103B90001431193137040736D33303033F3F4260F2
:103BA00006E0E000007FA8127FBF40040618060A66
:103BB0001008000040407F4040A410041F20400136
:103BC000A3201F143300600E6004300C034605343C
:103BD000C210040707060170090404048444444425
:103BE000840780050484C4041501120A7111214060
:103BF000073D0707C9200F0000101814121100001C
:103C00000F1010100F0F131F1015600D0810121257
:103C10000D00001800000D120A51295130015E01FB
:103C2000528001013B4514047F030CA915DE1C05DD
:103C3000385454582503080A2004047800003C40F6
:103C4000407C2000092CFFAAAAAA280800FF6810BF
:103C5000062649494932101005020408100F0D6F5D
:103C600000049D01040D9D0004156343F808012420
:103C70000500F81860E824048060182357202029E4
:103C800023E01021A310E01449B4313908043C8822
:103C90006818630D15FF037DEA039DFF0371144D42
:103CA000FF031D06043D2E040942E91C06402020A6
:103CB00020C04A04110721EA3E40520452600E819E
:103CC00018712951070D4769031C060C0A0A090CD3
:103CD0000004156B2D00042004080F0815100508BA
:103CE00009090E071D180430050909090F0A512991
:103CF00051070DFF00040D2100043C072341410042
:103D0000002EEF06522E04510F5D85067C04A24A58
:103D1000043F070C0816020304060708092D031EBA
:103D2000F0A0052310FF050E13F0C7052E0F230684
:103D30002EFF3C060A120F65100840405F5555558E
:103D400075045B5F40CAD98624060F09498979ED5D
:103D50000211201F200800FE02424ACA4A030C0436
:103D6000124202FE2F05040C1340504C4340404FBA
:103D700050505C403413F8880122FF050E13F810F0
:103D8000082E1FD303227F2003109F80E2338082FE
:103D9000010C0716E2A2928A868215060C041640D0
:103DA000807F6E08040B142424A4FEA3220022CCDE
:103DB00000D21F08062F093E0167070C0510FF02FD
:103DC00002022507257C539008C3FE08CE070C0F7E
:103DD000260444827F01808040432C10284681B510
:103DE00006A805D03A000800690400050002040690
:043DF00008000000C7
:0400000508000131BD
:00000001FF
